:040000000BEF00F012
:100008004782FACF29F0FBCF2AF0D1ED04F05AEF5E
:0200180006F0F0
:1006000000202054494D4520202045565420535069
:0B06100044004F464600204F4E000003
:10061C00F4EC06F0010E396E060E3A6E800E3B6E4F
:10062C0094EC05F0040EE1EC06F037C03DF038C058
:10063C003EF0000E406E0A0E3F6EEFEC05F03DC032
:10064C0062F03EC063F0000E0001616F030E606F3C
:10065C00640E00016025D96E000E00016121DA6E76
:10066C0062C037F063C038F0000E3A6E0A0E396E75
:10067C0039EC06F03750300FDF6E62C03DF063C0CE
:10068C003EF0000E406E0A0E3F6EEFEC05F03DC0E2
:10069C0062F03EC063F000016007D8A06107000162
:1006AC006029D6E100016129D8A4D2D7000E00013F
:1006BC00686F640E396E000E3A6ECD0E3B6E94EC84
:1006CC0005F05CEC05F053EC07F0010E18EC06F0AD
:1006DC0000016A6F00016A29D8B40DD06AC069F0B4
:1006EC0000016905D8A407D01450D8A402D0010E7B
:1006FC0001D0000E146E00016905D8B414D0020E9E
:10070C0000016919D8B40FD0030E00016919D8B4CF
:10071C000AD0040E00016919D8B405D0050E0001E9
:10072C006919D8A47FD700016A05D8A4A0D01450A9
:10073C00D8B44FD0160E396E060E3A6EC90E3B6EFB
:10074C0094EC05F020C037F0000ECEEC06F021C082
:10075C0037F0010ECEEC06F022C037F0020ECEECD4
:10076C0006F023C037F0030ECEEC06F024C037F0B1
:10077C00040ECEEC06F025C037F0050ECEEC06F0DC
:10078C0026C037F0060ECEEC06F027C037F0070E69
:10079C00CEEC06F0200E376E080ECEEC06F04F0EA7
:1007AC00376E090ECEEC06F04E0E376E100ECEECF8
:1007BC0006F064C037F0110ECEEC06F065C037F0D1
:1007CC00120ECEEC06F066C037F0130ECEEC06F02F
:1007DC004ED0120E396E060E3A6EC90E3B6E94EC6C
:1007EC0005F020C037F0000ECEEC06F021C037F03B
:1007FC00010ECEEC06F022C037F0020ECEEC06F065
:10080C0023C037F0030ECEEC06F024C037F0040EF4
:10081C00CEEC06F025C037F0050ECEEC06F026C067
:10082C0037F0060ECEEC06F027C037F0070ECEECF4
:10083C0006F04F0E376E080ECEEC06F0460E376EF5
:10084C00090ECEEC06F0460E376E100ECEEC06F00E
:10085C0064C037F0110ECEEC06F065C037F0120E06
:10086C00CEEC06F066C037F0130ECEEC06F0020E9E
:10087C0000016A19D8B405D0030E00016A19D8A476
:10088C002BD0CA0E396E470E21EC07F0CB0E396E09
:10089C004450300F21EC07F0020E00016A19D8A465
:1008AC000BD0444A452A050E44184510D8A414D040
:1008BC00000E456E010E0FD0030E00016A19D8A46C
:1008CC000BD04406D8A0450644504510D8A404D0FB
:1008DC00000E456E040E446E040E00016919D8A476
:1008EC00A1D6000E376E010EBAEC06F0000E38ECF5
:1008FC0007F0206E010E38EC07F0216E020E38EC7A
:10090C0007F0226E030E38EC07F0236E040E38EC61
:10091C0007F0246E050E38EC07F0256E060E38EC49
:10092C0007F0266E070E38EC07F0276EC90E396EED
:10093C00080E38EC07F021EC07F0CA0E396E090EE0
:10094C0038EC07F021EC07F0CB0E396E100E38ECBA
:10095C0007F021EC07F0110E38EC07F00001646F82
:10096C00120E38EC07F00001656F130E38EC07F02F
:10097C000001666F200E396E000E3A6EC00E3B6E93
:10098C0094EC05F0640E396E000E3A6ECD0E3B6E93
:10099C0094EC05F047D60600E9CF2BF0EACF2CF00B
:1009AC00E1CF2DF0E2CF2EF0D9CF2FF0DACF30F00F
:1009BC00F3CF31F0F4CF32F0F6CF33F0F7CF34F091
:1009CC00F8CF35F0F5CF36F0F2A416D0080ED624B9
:1009DC00D66E000ED720D76E0A4A0B2AC90E0A18FB
:1009EC000B10D8A408D0000E0B6E000E0A6E000E71
:1009FC00096E010E086EF29436C0F5FF35C0F8FF93
:100A0C0034C0F7FF33C0F6FF32C0F4FF31C0F3FF40
:100A1C0030C0DAFF2FC0D9FF2EC0E2FF2DC0E1FF9E
:100A2C002CC0EAFF2BC0E9FF2AC0FBFF29C0FAFF4C
:100A3C0047921100819A818C818E81B202D0010E75
:100A4C00120081B402D0040E120081B602D0070E3F
:100A5C00120081B802D00A0E1200818A819C818E0C
:100A6C0081B202D0020E120081B402D0050E120027
:100A7C0081B602D0080E120081B802D00B0E120003
:100A8C00818A818C819E819E81B202D0030E1200DC
:100A9C0081B402D0060E120081B602D0090E1200EB
:100AAC0081B802D00C0E1200FF0E1200020E91EC57
:100ABC0006F0056EF00E0516060E0512010E91ECF1
:100ACC0006F0066E000E91EC06F0076E05AC04D035
:100ADC0005380F0B010B03D005380F0B030B300F30
:100AEC00206E05500F0B300F216E3A0E226E063819
:100AFC000F0B0F0B300F236E06500F0B300F246EA5
:100B0C003A0E256E07380F0B0F0B300F266E075061
:100B1C000F0B300F276E000E286E1200000E376E72
:100B2C003B50BAEC06F016D0010E376E39C0F6FF0A
:100B3C003AC0F7FFF86A050EF76403D00800F550C9
:100B4C0005D0F6CFE9FFF7CFEAFFEF50BAEC06F08D
:100B5C00394A3A2A39C0F6FF3AC0F7FFF86A050E4F
:100B6C00F76403D00800F55005D0F6CFE9FFF7CFB6
:100B7C00EAFFEF500009D8B41200D6D7000E91EC62
:100B8C0006F03A6E800E386E000E06EC07F0010E81
:100B9C0091EC06F03A6E350E386E010E06EC07F04D
:100BAC00020E91EC06F03A6E510E386E020E06EC07
:100BBC0007F0930E386E070E06EC07F0000E91EC62
:100BCC0006F03A6E3A507F0B386E000E06EC07F0CA
:100BDC001200000E436E000E426E3F504010D8B40F
:100BEC001CD0010E416E04D0D8903F364036412ABD
:100BFC0040AEFAD7D890423643363F503D5C405019
:100C0C003E58D8A005D03F503D5E40503E5A4280E1
:100C1C00D89040323F32412EEDD742C03DF043C018
:100C2C003EF01200386E3804D8A415D020EC05F034
:100C3C00396E3928D8B409D04650D8B406D039C04A
:100C4C0037F0000E466E375012003928D8A409D060
:100C5C00010E466E06D03850D8A403D020EC05F017
:100C6C001200FF0E120039503A10D8B418D0010EF1
:100C7C003B6E04D0D89039363A363B2A3AAEFAD786
:100C8C003950375C3A503858D8A004D03950375EB8
:100C9C003A50385AD8903A3239323B2EF1D737C0C5
:100CAC0037F038C038F0120000EE01F0280EEE6A72
:100CBC00E806FDE1FE0EF66E0E0EF76E000EF86EF7
:100CCC000900F5CF44F00900F5CF45F00900F5CF48
:100CDC0046F047904792000EF86E00010EEF03F0BD
:100CEC00000E956E9450F80B946E8290000E376E39
:100CFC00020EBAEC06F0000E376E380EBAEC06F0A7
:100D0C00000E376E0C0EBAEC06F0000E376E010EAC
:100D1C00BAEC06F01200386E6CEC07F0D00E5CECFE
:100D2C0007F038505CEC07F070EC07F0D10E5CEC7F
:100D3C0007F062EC07F0396E68EC07F039501200DE
:100D4C00C08EC09AC088C096C090C082C094C29217
:100D5C00C29AC288C296C294C19AC198000EC46E3F
:100D6C00000EC36EC2801200386E37B002D0829271
:100D7C0001D0828238C083FF82848294958E8280D7
:100D8C0082928284829483BEFCD78290959E1200BC
:100D9C00386E38C0A9FF37C0A8FFA69EA69CA684B3
:100DAC00F29E550EA76EAA0EA76EA682F28EA1A871
:100DBC00FED7A1981200C282C2B2FED7C350C4CFD4
:100DCC0039F03A6A39C03AF0396A39103B6E3A5008
:100DDC003C6E3BC037F03CC038F01200000E816E08
:100DEC00F28E76EC06F02DEC07F0C4EC05F015EC69
:100DFC0007F041EC07F0A6EC06F04AEC07F0120005
:100E0C00396E6CEC07F0D00E5CEC07F039505CECF2
:100E1C0007F038505CEC07F068EC07F01200D58C4A
:100E2C00D59AD586000ED76E060ED66EF294F28A3F
:100E3C00F28CD58E12003A6E000E376E3950BAEC29
:100E4C0006F0010E376E3A50BAEC06F0120094869A
:100E5C009488280EC66E640EC86EC79CC78E9E966C
:100E6C00A1961200376E37C0A9FFA694A69EA69C29
:100E7C00A680A85012000F0EC16E1E0E936EF19E2E
:100E8C008150E009816E120082888286800EC76EC6
:100E9C00280EC66E040EC86E1200200E396E000E9F
:100EAC003A6EC00E3B6E94EC05F01200376E37C0F4
:100EBC00C9FF78EC07F0120074EC07F07CEC07F03B
:100ECC00C9501200C58478EC07F01200C58078EC8C
:100EDC0007F01200C58278EC07F01200C58678EC9A
:100EEC0007F012009EA6FED79E961200C58AC588F2
:050EFC001200010001DD
:020000040030CA
:08000000FF01191EFF8081FFC2
:00000001FF
